:100000000C945A00189500001895000018950000EF
:10001000189500001895000018950000189500002C
:10002000189500001895000018950000189500001C
:10003000189500000C940501189500001895000013
:1000400018950000189500000C94590218950000AE
:1000500018950000189500001895000018950000EC
:1000600018950000189500001895000018950000DC
:1000700018950000189500001895000018950000CC
:1000800018950000189500001895000018950000BC
:1000900018950000189500001895000018950000AC
:1000A000189500001895000018950000189500009C
:1000B000189500008FEF8DBFC0ECE8E64E2E88E06B
:1000C0008EBFD8E0F8E05F2EA89584B7082E877F12
:1000D00084BF88E199278093600090936000EEEFE1
:1000E000F7E0A0E0B1E088278D933197E9F781E050
:1000F0008093C40080E08093C50088E18093C100B4
:10010000662474B7777F74BF88E390E280936000C1
:1001100090936000549A5C9A53985B9A559A5D98B4
:10012000569A5E98579A5F9A6B987091C100706862
:100130007093C10080E08093800083E08093810011
:10014000789470916F00716070936F00E4E6F5E051
:100150000E9422020E942902A8950E94D101082F24
:10016000013011F00C94E100A1E0B1E0BA93AA9340
:100170000E945B0122960E94A30181E091E00E940F
:100180004C02E1E0F1E001E0A881B9810E948F0218
:10019000A881B981E8E6F5E00E9498020FB681E0F7
:1001A000481A81E0580A22960FBE11F00C94E10023
:1001B000EAE6F5E00E9422020E9429028AE080938A
:1001C0000001ACE2B0E08C9183FBABE2B0E08C913B
:1001D00086F98C9300910001003080E010F009F066
:1001E00081E08F93ACE2B0E00C9103FB81E00EF470
:1001F00080E09F918923882311F40C9402015F9A77
:100200000C9403015F980C94AC000F921F922F92F4
:100210003F924F925F927F92AF92BF920F931F9344
:100220002F933F934F935F936F937F938F939F93FE
:10023000AF93BF93CF93DF93EF93FF938FB78F93DA
:1002400000910001003018F011F00C9429010C9479
:100250002E0180910001815080930001ACE2B0E05A
:100260008C9183FBA0E5B8E00E9455028D9388270E
:100270008C930E941A020E94290280E289B98F9110
:100280008FBFFF91EF91DF91CF91BF91AF919F9180
:100290008F917F916F915F914F913F912F911F911E
:1002A0000F91BF90AF907F905F904F903F902F90B5
:1002B0001F900F901895A1E0B1E088278C930E94C1
:1002C000D701A1E0B2E08C93009101020A3011F451
:1002D0000C94A20100EA16E821E030E0ABE0B3E0C4
:1002E0000D931D932D933C930E94AF02A1E0B1E0CA
:1002F000EFEF0E94BC010E94AC02009101020A30A3
:1003000011F40C94A20181E091E00E944C02E1E022
:10031000F1E0A881B9810E948A02A1E0B2E08C914B
:10032000A1E0B1E08D9388278C93E881F981A1E069
:10033000B1E00E94B3010E948A0281E0481A81E084
:10034000580A229608958AE090E00E943C020E949A
:10035000D701A1E0B2E08C9300910102003011F0CE
:100360000C94A70108958F938D918823E9F7119735
:100370008F910895A0E5B8E01FD0803079F08D30DE
:1003800039F0EE23C9F38D93EA9563FE65D0F4CF7F
:1003900063FC04C08DE060D08AE05ED088278C9337
:1003A000089580910803882309F081E008958091E1
:1003B0000803882309F408950F929F93AF93BF9386
:1003C0007F930F931F932F933F93ABE0B3E00D9177
:1003D0001D912D913C918827802B812B822B832B83
:1003E000F1F00150104020403040809108038823F4
:1003F00091F3F894809108038A9580930803909173
:100400000603A8E0B2E0A90F0024B01D8C919395DB
:100410009E3F09F4992790930603789401C088279A
:100420003F912F911F910F917F91BF91AF919F911C
:100430000F900895A0E5B8E08D91882311F00CD0BD
:10044000FBCF08950E945102802D11F005D0FACF04
:1004500008958DE001D08AE00090C00005FEFCCF39
:100460008093C60008953197F1F70895689462F873
:100470000895E89462F80895EF93FF93EE27E82B30
:10048000E92B31F0E0EAFFE03197F1F70197D1F77E
:10049000FF91EF91089599275A924A92480E591E5A
:1004A0000895C89531960020089580E30EF4839551
:1004B00008957F930F93AF93BF938F939F938FB7BD
:1004C0008F93809108030EEF081B29F49091C600CA
:1004D0000E94360213C000910703A8E0B2E077271C
:1004E0009091C600A00FB71F9C938395809308033B
:1004F00003950E3F09F40027009307038F918FBFE8
:100500009F918F91BF91AF910F917F9118958827FF
:100510008D93089581918D938823E1F708950023A9
:1005200031F081918D930A958823C9F70895EFCF13
:10053000689401C0E894AF93BF938D9116F09191A8
:1005400003C00E945102902D891718F011F48823DE
:10055000A1F7BF91AF910895E89463F80895689466
:0C05600063F8089552554E0066005200EA
:00000001FF
