:100000000C945A00189500001895000018950000EF
:10001000189500001895000018950000189500002C
:10002000189500001895000018950000189500001C
:10003000189500000C946E021895000018950000A9
:1000400018950000189500001895000018950000FC
:1000500018950000189500001895000018950000EC
:1000600018950000189500001895000018950000DC
:1000700018950000189500001895000018950000CC
:1000800018950000189500001895000018950000BC
:1000900018950000189500001895000018950000AC
:1000A000189500001895000018950000189500009C
:1000B000189500008FEF8DBFC0E0E8E14E2E88E07C
:1000C0008EBFD8E0F6E05F2EA89584B7082E877F14
:1000D00084BF88E199278093600090936000EEEFE1
:1000E000F7E0A0E0B1E088278D933197E9F781E050
:1000F0008093C40080E08093C50088E18093C100B4
:10010000662474B7777F74BF8FE197E080936000B7
:1001100090936000809160008860809360000E94EE
:100120007E0D8DE18093070180E08093060180E0E1
:100130008093050180E08093040187E580930301AB
:1001400082E38093020186E38093010184E280933D
:100150000001A7E1B1E0E4EAFBE10E941E0B0E946E
:100160007E09A0E2B1E0EEEAFBE10E941E0B0E94D4
:100170008609E0E0F0E0A9E2B1E00E94240DE1E0B0
:10018000F0E0AAE2B1E00E94240D209A2898579A44
:100190005F98559A5D9881E08093C40080E08093D9
:1001A000C50088E18093C10086E08093C20080E0B2
:1001B0008093800083E08093810088E59EE990939E
:1001C00085008093840080912A0180934A03D201A4
:1001D000E8EBFBE10E941E0B85E60E94E20A0E940A
:1001E0003A04229685E60E94DE0A789470916F00A8
:1001F000716070936F00A8950E94C608082F0130A7
:1002000011F00C94AE010E944F04E9E7F2E0A9E777
:10021000B2E00E94440BE9E7F2E09AE300E236E044
:10022000AEEAB1E00E944A0DA4E7B2E02C9386E664
:100230000E94E20AE9E7F2E001E0A881B9810E94A8
:10024000150DA881B981E8EDFBE10E942E0D0FB6D6
:1002500086E6481A80E0580A22960FBE11F00C94E8
:100260007801ABE4B3E0BA93AA930E94720322969A
:10027000ABE2B1E0EAEDFBE10E941E0BE3E4F3E048
:10028000ABE2B1E00E94A8080E94B40CABE2B1E07E
:100290000E94A808E2EEFBE10E941E0B0E94730977
:1002A000E7E1F1E0ABE2B1E00E94A8080E940A0D8C
:1002B000ABE2B1E00E94A808E2EEFBE10E941E0B57
:1002C0000E947309E0E2F1E0ABE2B1E00E94A8080D
:1002D0000E940A0DABE2B1E00E94A808E4EEFBE147
:1002E0000E941E0BABE2B1E00E94F4080E94FA08E3
:1002F000AEEAB1E0EAEEFBE10E942E0D81E009F0EA
:1003000080E08F93A1E1B2E0EEEEFBE10E942E0DC2
:1003100081E009F080E09F918923882311F40C94F7
:10032000AE018EE29AE3A0EFB1E00E94E80AEFECA2
:10033000F1E0A7E1B1E00E940A0D0E947E09E0EF22
:10034000F1E0A0E2B1E00E940A0D0E948609A7E454
:10035000B3E0BA93AA930E94D40322960091490372
:10036000003080E010F009F081E08F9300914A03A3
:10037000003080E010F009F081E09F91892388230C
:1003800011F40C946C025F9AABE2B1E0E0EFFBE198
:100390000E941E0BABE2B1E00E94A808BA93AA9398
:1003A00080917702D2018C9381E00E94E20A80E082
:1003B000D2018C9381E00E94E20A0E94B10226964B
:1003C00082E00E94DE0AABE2B1E00E94A808E2EE01
:1003D000FBE10E941E0BABE2B1E00E94A808BA93B9
:1003E000AA9380917702D2018C9381E00E94E20A65
:1003F00081E0D2018C9381E00E94E20A0E94B10266
:10040000269682E00E94DE0AABE2B1E00E94A808D4
:10041000E2EEFBE10E941E0BABE2B1E00E94A808F5
:10042000BA93AA9380917702D2018C9381E00E94C3
:10043000E20A82E0D2018C9381E00E94E20A0E94EB
:10044000B102269682E00E94DE0AABE2B1E00E9491
:10045000A808E2EEFBE10E941E0BABE2B1E00E94B5
:10046000A808BA93AA9380917702D2018C9381E075
:100470000E94E20A83E0D2018C9381E00E94E20AAA
:100480000E94B102269682E00E94DE0AABE2B1E051
:100490000E94A808E4EEFBE10E941E0BEBE2F1E0F3
:1004A000D2010E940A0D85E60E94E20A0E943A04E7
:1004B000229685E60E94DE0A5F9880E080934903D9
:1004C00000914A03013018F011F00C9469020C9469
:1004D0006C0281E080934A030C94FB000F921F9200
:1004E0002F923F924F925F927F92AF92BF920F9363
:1004F0001F932F933F934F935F936F937F938F93AC
:100500009F93AF93BF93CF93DF93EF93FF938FB7F7
:100510008F9388E59EE9909385008093840081E025
:10052000809349038F918FBFFF91EF91DF91CF911E
:10053000BF91AF919F918F917F916F915F914F91FB
:100540003F912F911F910F91BF90AF907F905F903F
:100550004F903F902F901F900F90189508950895F9
:10056000089581E00E94E20AAC81BD810C910030C7
:1005700011F00C94C10280ECA881B9818C930C9489
:10058000DD02013011F00C94CB0280EDA881B9811D
:100590008C930C94DD02023011F00C94D50280EEA5
:1005A000A881B9818C930C94DD02033011F00C9476
:1005B000DD0280EFA881B9818C9391E0AA81BB8193
:1005C0000E94240BA881B9810C91AA81BB814C9116
:1005D000040FA881B9810C930E94830D10E90E9439
:1005E000980D11E00E94980DA881B9811C910E947C
:1005F000980D13E80E94980D0E948F0D8AE090E0FC
:100600000E9464090E94830D10E90E94980D10E079
:100610000E94980D0E94830D11E90E94980D0E947E
:10062000B70DADEAB1E01C930E94B50DACEAB1E0A4
:100630001C930E948F0DADEAB1E00C9107FB16F000
:100640000C943E030FEF1FEFACEAB1E04D915C91CB
:10065000041B150BACEAB1E00D931C93AE81BF8176
:10066000E6EFFBE10E941E0BECEAF1E0AE81BF81F8
:100670000E94A8080E94B10C0C944C03AE81BF816B
:10068000E8EFFBE10E941E0BECEAF1E0AE81BF81D6
:100690000E94A8080E94B10C81E0481A80E0580A24
:1006A0002296089581E00E94E20A80E0E6E20E943C
:1006B000140CA8E0B1E0E0E5F3E098E00E94100D32
:1006C00088E090E0E0E0F1E0A8E0B1E00E94710D88
:1006D000AA81BB810C9381E0481A80E0580A2296D7
:1006E0000895089581E00E94E20A80E0E6E20E9417
:1006F0006F0B5CEC80E0E6E20E94970B56E680E030
:10070000E6E20E94970BBB27A6E180E0E6E221E04B
:100710002A930E94BF0BA881B9815C93BB27A6E1F5
:1007200080E0E6E221E02A930E94BF0BA3E4B3E05D
:100730005C93BB27A6E180E0E6E221E02A930E94D9
:10074000BF0BA4E4B3E05C93BB27A6E180E0E6E244
:1007500021E02A930E94BF0BA5E4B3E05C93BB2782
:10076000A6E180E0E6E221E02A930E94BF0BA6E426
:10077000B3E05C93E3E4F3E0A0E2B1E00E94C60AD8
:100780000E948609E3E4F3E0A7E1B1E00E94CE0A0B
:100790000E947E0980E0AA81BB818C9381E0481A87
:1007A00080E0580A22960895E1E1F1E00E948D0A66
:1007B000A3E4B3E00D931D932D933D9380E0E6E217
:1007C0000E946F0B5CEC80E0E6E20E94970B59E917
:1007D00080E0E6E20E94970B5CE080E0E6E20E94A7
:1007E000970B5091430380E0E6E20E94970B5091F3
:1007F000440380E0E6E20E94970B5091450380E0BD
:10080000E6E20E94970B5091460380E0E6E20E94E8
:10081000970B80E0A881B9818C93089580E0E6E28F
:100820000E946F0B5CEC80E0E6E20E94970B59E9B6
:1008300080E0E6E20E94970B5CE080E0E6E20E9446
:10084000970B50E080E0E6E20E94970B50E080E0DA
:10085000E6E20E94970B50E080E0E6E20E94970BF0
:1008600050E080E0E6E20E94970B80E0A881B98129
:100870008C9308955D9AA881B9810E94F4080E9422
:10088000FA088091C00085FFFCCFEF93FF93E4EC62
:10089000F0E00E945B09FF91EF915D98089500EAF6
:1008A00016E821E030E0A8E5B3E00D931D932D9309
:1008B0003C930E94450DA9E7B2E0E4E60E94B1082E
:1008C0000E94420D089573746F700072756E00007F
:1008D000BA05B005A5059A05900586057C05720543
:1008E00068055F0555054C0543053A0531052805A2
:1008F0001F0517050E050605FE04F604EE04E604C2
:10090000DE04D604CF04C704C004B904B204AB04A7
:10091000A4049D0496048F04880482047B04750457
:100920006F04680462045C04560450044A044404DE
:100930003F04390433042E04280423041D0418043E
:1009400013040D0408040304FE03F903F403EF0386
:10095000EA03E503E103DC03D703D303CE03C903B2
:10096000C503C103BC03B803B303AF03AB03A703C1
:10097000A3039E039A03960392038E038A038603BE
:1009800083037F037B037703730370036C036803A4
:10099000650361035E035A035703530350034C037B
:1009A0004903460342033F033C0338033503320344
:1009B0002F032C032903250322031F031C03190300
:1009C0001603130310030D030B03080305030203AF
:1009D000FF02FC02FA02F702F402F102EF02EC025B
:1009E000E902E702E402E102DF02DC02DA02D702F6
:1009F000D502D202D002CD02CB02C802C602C30287
:100A0000C102BF02BC02BA02B802B502B302B1020F
:100A1000AE02AC02AA02A802A502A302A1029F0292
:100A20009D029A02980296029402920290028E020D
:100A30008C028A02880286028402820280027E027E
:100A40007C027A02780276027402720270026E02EE
:100A50006C026A02680266026502630261025F025A
:100A60005D025B025A0258025602540252025102BF
:100A70004F024D024B024A0248024602450243021F
:100A800041023F023E023C023A023902370236027C
:100A90003402320231022F022D022C022A022902D4
:100AA000270226022402220221021F021E021C0229
:100AB0001B0219021802160215021302120210027A
:100AC0000F020D020C020B020902080206020502C7
:100AD000030202020102FF01FE01FC01FB01FA0117
:100AE000F801F701F501F401F301F101F001EF0163
:100AF000ED01EC01EB01E901E801E701E501E401A9
:100B0000E301E101E001DF01DE01DC01DB01DA01EB
:100B1000D901D701D601D501D301D201D101D0012C
:100B2000CF01CD01CC01CB01CA01C801C701C6016B
:100B3000C501C401C201C101C001BF01BE01BC01A8
:100B4000BB01BA01B901B801B701B501B401B301E4
:100B5000B201B101B001AF01AD01AC01AB01AA011D
:100B6000A901A801A701A601A401A301A201A10155
:100B7000A0019F019E019D019C019B019A0198018A
:100B800097019601950194019301920191019001C1
:100B90008F018E018D018C018B018A0189018701F2
:100BA00086018501840183018201810180017F0129
:100BB0007E017D017C017B017A0179017801770159
:100BC00076017501740173017201710170016F0189
:100BD0006E016D016C016B016A01690168016701B9
:100BE00066016501640163016301620161016001E5
:100BF0005F015E015D015C015B015A015901580111
:100C0000570156015501540153015201510151013F
:100C100050014F014E014D014C014B014A01490168
:100C20004801470146014501450144014301420194
:100C3000410140013F013E013D013C013B013B01BF
:100C40003A013901380137013601350134013301E8
:100C500032013201310130012F012E012D012C0111
:100C60002B012A012A01290128012701260125013A
:100C70002401230123012201210120011F011E0162
:100C80001D011C011C011B011A011901180117018A
:100C900016011601150114011301120111011001B1
:100CA00010010F010E010D010C010B010A010A01D7
:100CB00009010801070106010501040104010301FE
:100CC000020101010001FF00FF00FE00FD00FC0029
:100CD000FB00FA00F900F900F800F700F600F50053
:100CE000F400F400F300F200F100F000EF00EE0079
:100CF000EE00ED00EC00EB00EA00E900E900E8009E
:100D0000E700E600E500E400E400E300E200E100C3
:100D1000E000DF00DF00DE00DD00DC00DB00DA00E9
:100D2000DA00D900D800D700D600D500D400D4000E
:100D3000D300D200D100D000CF00CF00CE00CD0034
:100D4000CC00CB00CA00CA00C900C800C700C6005A
:100D5000C500C500C400C300C200C100C000C0007F
:100D6000BF00BE00BD00BC00BB00BA00BA00B900A5
:100D7000B800B700B600B500B500B400B300B200CB
:100D8000B100B000AF00AF00AE00AD00AC00AB00F2
:100D9000AA00AA00A900A800A700A600A500A40018
:100DA000A400A300A200A100A0009F009E009E003E
:100DB0009D009C009B009A00990098009800970065
:100DC000960095009400930092009200910090008C
:100DD0008F008E008D008C008B008B008A008900B4
:100DE00088008700860085008400840083008200DC
:100DF000810080007F007E007D007C007C007B0005
:100E00007A0079007800770076007500740073002E
:100E100073007200710070006F006E006D006C0056
:100E20006B006A0069006900680067006600650081
:100E3000640063006200610060005F005E005D00AE
:100E40005D005C005B005A005900580057005600D6
:100E50005500540053005200510050004F004E0006
:100E60004D004C004B004B004A0049004800470031
:100E700046004500440043004200410040003F005E
:100E80003E003D003C003B003A003900380037008E
:100E900036003500340033003200310030002F00BE
:100EA0002E002D002C002B002A00290028002700EE
:100EB0002500240023002200210020001F001E0026
:100EC0001D001C001B001A00190018001700160056
:100ED000140013001200110010000F000E000D008E
:100EE0000C000B000A0008000700060005000400C3
:100EF000030002000100FFFFFEFFFDFFFCFFFBFF00
:100F0000FAFFF9FFF7FFF6FFF5FFF4FFF3FFF2FF3B
:100F1000F0FFEFFFEEFFEDFFECFFEAFFE9FFE8FF78
:100F2000E7FFE6FFE4FFE3FFE2FFE1FFDFFFDEFFB5
:100F3000DDFFDCFFDBFFD9FFD8FFD7FFD5FFD4FFF4
:100F4000D3FFD2FFD0FFCFFFCEFFCDFFCBFFCAFF35
:100F5000C9FFC7FFC6FFC5FFC3FFC2FFC1FFBFFF79
:100F6000BEFFBDFFBBFFBAFFB9FFB7FFB6FFB4FFBF
:100F7000B3FFB2FFB0FFAFFFADFFACFFABFFA9FF08
:100F8000A8FFA6FFA5FFA3FFA2FFA1FF9FFF9EFF53
:100F90009CFF9BFF99FF98FF96FF95FF93FF92FFA1
:100FA00090FF8FFF8DFF8CFF8AFF88FF87FF85FFF3
:100FB00084FF82FF81FF7FFF7DFF7CFF7AFF78FF48
:100FC00077FF75FF74FF72FF70FF6FFF6DFF6BFFA0
:100FD00069FF68FF66FF64FF63FF61FF5FFF5DFFFE
:100FE0005CFF5AFF58FF56FF54FF53FF51FF4FFF5E
:100FF0004DFF4BFF49FF48FF46FF44FF42FF40FFC4
:101000003EFF3CFF3AFF38FF36FF34FF32FF30FF30
:101010002EFF2CFF2AFF28FF26FF24FF22FF20FFA0
:101020001EFF1CFF1AFF18FF16FF14FF11FF0FFF12
:101030000DFF0BFF09FF06FF04FF02FF00FFFDFE8F
:10104000FBFEF9FEF6FEF4FEF2FEEFFEEDFEEBFE19
:10105000E8FEE6FEE3FEE1FEDEFEDCFED9FED7FEA4
:10106000D4FED2FECFFECDFECAFEC7FEC5FEC2FE36
:10107000BFFEBDFEBAFEB7FEB4FEB2FEAFFEACFED2
:10108000A9FEA6FEA3FEA1FE9EFE9BFE98FE95FE77
:1010900092FE8FFE8CFE89FE85FE82FE7FFE7CFE28
:1010A00079FE76FE72FE6FFE6CFE68FE65FE62FEE5
:1010B0005EFE5BFE57FE54FE50FE4DFE49FE46FEB0
:1010C00042FE3EFE3BFE37FE33FE2FFE2BFE28FE89
:1010D00009D00E94F10A00FC10D0089503D01ED060
:1010E00001F8F9CF0024E89457FF02C009D06894B2
:1010F00000F80BD010F80124089502D009D008950B
:10110000509540954F5F5F4F0895E89417FF0895FD
:10111000009510950F5F1F4F68940895352F242F69
:10112000E894452B11F468940895512F402F00271F
:10113000112780E1440F551F001F111F021B130BC5
:10114000416018F4020F131F4E7F8A9599F7089596
:101150008F938D918823E9F711978F910895A0E0DF
:10116000B6E01AD0803079F08D3039F0EE23C9F333
:101170008D93EA9563FE41D0F4CF63FC04C08DE00B
:101180003CD08AE03AD088278C93089581E0009083
:10119000C00007FE882708950F931F932F933F9356
:1011A000AF93BF93A8E5B3E00D911D912D913C91B4
:1011B0000090C00007FC0BC08827802B812B822B5E
:1011C000832B41F00150104020403040F1CF8091FE
:1011D000C60001C08827BF91AF913F912F911F9109
:1011E0000F910895A0E0B6E08D91882311F005D00D
:1011F000FBCF08958DE001D08AE00090C00005FE8D
:10120000FCCF8093C600089500FC05D0089530D02F
:1012100005D001F8F9CF37D03FD00895842F952F0E
:10122000A62FB72FE894452B462B472B11F4689433
:101230000895402F512F622F732F00271127222747
:101240003327F0E2440F551F661F771F001F111F41
:10125000221F331F081B190B2A0B3B0B416028F47C
:10126000080F191F2A1F3B1F4E7FFA9559F7089543
:101270000024E89477FF02C006D0689400F809D0F3
:1012800010F80124089512D04F5F5F4F6F4F7F4FCA
:101290000895E89437FF08950095109520953095AE
:1012A0000F5F1F4F2F4F3F4F689408954095509503
:1012B0006095709508953197F1F70895689462F8F4
:1012C0000895E89462F80895EF93FF93EE27E82BD2
:1012D000E92B31F0E0EAFFE03197F1F70197D1F720
:1012E000FF91EF9108950E94AF02A7E1B1E0E4E120
:1012F000F1E00E94C60933970C94A209E7E1F1E0FE
:10130000A4E1B1E00E94B4090C94B002E0E2F1E083
:10131000A1E1B1E00E9490090C94AE02ADE0BB27C0
:10132000868197810E94940C0D93838194810E9401
:10133000940C0D93808191810E94940C0D930895DB
:10134000EDE0FF2782810E94890C8AE38D938181E1
:101350000E94890C8AE38D9380810E94890C8827E2
:101360008C930895ADE0BB27808191810E94940CFD
:101370000D93838194810E94940C0D9386819781B3
:101380000E94940C0D930895EDE0FF2780810E9448
:10139000890C8EE28D9381810E94890C8EE28D935F
:1013A00082810E94890C88278D93089593E0ADE097
:1013B00002C096E0AAE0B0E08FB7F89401910D93D7
:1013C0009A95E1F78FBF08950191119145EB55E092
:1013D0000E946E08440F440FF42E0F31150728F4B5
:1013E00081E0E82E0395D02E22C00C33150728F497
:1013F00082E0E82E0E51D02E1AC00150150B4DE69A
:1014000051E00E948E08F40E7CE07A95872F992790
:10141000E0E3F4E1A2E1BB270E943C0B02171307B3
:10142000A0F37395E72E021B130B0395D02E08959E
:1014300000001F003B005A0078009700B500D40060
:10144000F300110130014E01019111912191308180
:1014500040E851E561E070E00E940709042F152F74
:101460000C94E609A3DF0E2D0A95802F0295003219
:1014700020F01F2D137009F40395DA940D0D112738
:101480009927E4E9F4E1A8E1BB270E94410B080F8A
:10149000111F0895000F1B2A384755647381909ED1
:1014A00085DF0F2D11274CE355270E94680855272B
:1014B0000E0D151F4CE322273327662777270E943E
:1014C000FB0A0D0D131F231F089570DFDF92EF92AB
:1014D000FF920F2D1127222733274DE651E060E0C0
:1014E00070E00E94FB0AFF904F2D4D5F4695469598
:1014F0005527662777270E949E0CEF90DF900F9369
:101500001F932F933F930E94330A222733277F9103
:101510006F915F914F910C949E0C4BDFAF92BF92F5
:10152000CF920E94660A40E851E561E070E00E94B7
:10153000FB0AFF90EF90DF900F931F932F933F9341
:101540000E94510A7F916F915F914F910C949E0C74
:10155000019111912191308140E851E561E070E005
:101560000E9407090C94B80A0191119121913081D0
:1015700040E15EE060E070E00E940709F42E4CE379
:1015800050E00E946E08E42ED02E0895AF93BF93D2
:101590000E94A80ABF91AF910C94A009AF93BF938A
:1015A0000E94240ABF91AF910C94C409019111913A
:1015B000219130810895481A590A0895481A8827B8
:1015C000580A089599275A924A92480E591E08952A
:1015D0000D91003029F00817D9F79E931196F8CF96
:1015E00008950F92B801469F8001479F100D569FA6
:1015F000100D0F9008950F921F922F92C801D901DC
:10160000489F80014A9F90014B9F202C499F100DBD
:10161000211D321D5A9F202C589F100D211D321D57
:10162000599F200D311D689F200D311D699F300D80
:10163000789F300D2F901F900F9008950E942C0BD3
:101640000D920020D9F70895903029F08C91880FE1
:101650009A95E9F78C930895C895319600200895DE
:1016600091E005C092E003C094E001C098E0F4DF8F
:101670000D929A95E1F70895880F991FE80FF91FC9
:10168000F1CFE80FF91FECCF819104D08D9388231F
:10169000D9F70895813418F08B3508F480620895E5
:1016A00091E0882321F08894991F8A95E9F7892F82
:1016B00090950895883018F011968850FBCF0895C2
:1016C0000181082B0183128119231283EF93FF9369
:1016D000E4E1F0E00E945B09FF91EF9108950E9420
:1016E0006109FF270E94500BEBDFEF93FF93ECE7BC
:1016F000F7E00E945B09FF91EF91182B12830923F9
:101700000183EF93FF93E4E1F1E00E945B09FF9115
:10171000EF911081182311F00E945E09EF93FF935F
:10172000E4E6F6E00E945B09FF91EF9108950E94C4
:10173000500BFF2721E048E006C00E94500BFF2716
:1017400029915D9148E0BCDF579510F4182B128366
:10175000EF93FF93E4EDF0E00E945B09FF91EF91BE
:10176000182B1283EF93FF93E4E2F0E00E945B09F1
:10177000FF91EF914A9539F72A9519F708950E943C
:10178000500BFF27299148E055279ADF0923018351
:10179000EF93FF93E0E2F0E00E945B09FF91EF918D
:1017A00088941081182309F008945795EF93FF93BC
:1017B000E8EDF0E00E945B09FF91EF914A9529F76F
:1017C0005D932A9501F708957BDF09230183EF9349
:1017D000FF93E0E2F0E00E945B09FF91EF91E89453
:1017E0001081182309F06894EF93FF93E8EDF0E07F
:1017F0000E945B09FF91EF91089562DF16F4182BA8
:101800001283EF93FF93E4EDF0E00E945B09FF91F8
:10181000EF91182B1283EF93FF93E4E2F0E00E9424
:101820005B09FF91EF910895332730934F03309375
:101830004C0355DF0EF458C030914C0330FD54C0BA
:10184000662760934E03639560934D0321E050EF4C
:1018500048E079DFB9DF31F9B7DF32F9632F66701D
:10186000663009F441C0603019F031FB40D025C02A
:1018700060914D0370914F036717B1F0C0F48F93DF
:101880009F93862F8A95A0E5B3E014DF09DF7C9152
:1018900078236894772329F4E89460914D0360934A
:1018A0004E039F918F9109C0689421D006C0E8949F
:1018B0001ED060914D0360934E039FDF60914D03F6
:1018C000639560934D03613409F0C4CF60914E037A
:1018D00060934F036623E89409F4689430F93093D9
:1018E0004C03E89462F80895689462F808958F9321
:1018F0009F93A0E5B3E080914D038A95DBDED0DEB7
:101900007C9116F4782B01C079237C939F918F9161
:10191000089500278A3018F08A500395FBCF005DA8
:101920000D93805D8D9308958053905300278130EF
:1019300018F0065F8A95FBCF090F0895040F151F55
:10194000261F371F0895000F111F221F331F0895F0
:1019500000951095209530950F5F1F4F2F4F3F4FEB
:101960000895019110810FC00E94D60A0EC00E94F6
:10197000D60A10C00191108117FF05C03FEF2FEF6D
:1019800004C0008111272227332737FF03C0E0DF7F
:101990008DE28D93CF92DF92EF92AA24BB24CC24C8
:1019A000DD24EE2440E2EAE0FF2755E093E3808166
:1019B000890F87FD9F7083FD907F891B81935A95C6
:1019C000A9F7C1DFAA1CBB1CCC1CDD1CEE1C4A9570
:1019D00051F7E894EFE0FF2782910CD0EB30E0F76D
:1019E0001EF068948A2D0AD088278D93EF90DF909F
:1019F000CF900895982F829501D0892F8F70805DA8
:101A000026F0803309F4089568948D93089588270B
:101A10008D93089581918D938823E1F7089594E043
:101A200081918D939A95E1F70895002331F081918A
:101A30008D930A958823C9F70895E9CFF999FECFC8
:101A4000E1BDF2BD3196089591E001C092E0F6DF6C
:101A5000F89A80B58D939A95D1F70895689401C04E
:101A6000E894AF93BF938D9116F0919103C00E94BB
:101A70002C0B902D891718F011F48823A1F7BF9132
:101A8000AF910895E89463F80895689463F8089511
:101A9000689401C0E8942227102F231709F40895B1
:101AA00026F40E942C0B802D01C08191803081F0A2
:101AB000891741F070E08D931A9591F7239571E0A5
:101AC0001D93EACF01D0E8CF703011F07727089549
:101AD000772331F42395882713958D931A95E9F789
:101AE00008958C014D915191451721F00197081BE4
:101AF000190B08950197B1F78C0108953C983B9814
:101B00004498439808953B9A3C9803D03B9801D061
:101B10003C9AEF93E8E0EA95F1F7EF9108953B9A4C
:101B20003C9AF7DF3B98339BFECFF3DF3C98F1CF35
:101B30000894111F01C0110F69F03B9A18F40000BE
:101B40003C9802C03C9A00C0E4DF3B98339BFECF38
:101B5000E0DFF1CF3B9A3C98DCDF3B98339BFECF34
:101B6000E8943499689462F8D4CF089401C08894BA
:101B7000331F11E03B9A3C98CCDF3B98339BFECF60
:101B8000C8DF889434990894111FA0F73B9A3795C1
:101B900010F43C9801C03C9ABCDF3B98339BFECFCD
:101BA000B8DF089531302E30382E32320000323016
:101BB0003A33353A33300000626175642035303095
:101BC0003030306B6270732C207479706520415412
:101BD0002B48454C503F0000640064617465242F1D
:101BE00000002F002F656F660000727463007300A1
:0A1BF0006164632F00002D002B003C
:00000001FF
