:100000000C945A00189500001895000018950000EF
:10001000189500001895000018950000189500002C
:10002000189500001895000018950000189500001C
:10003000189500000C94CD0B189500001895000041
:1000400018950000189500000C9470131895000086
:1000500018950000189500001895000018950000EC
:100060001895000018950000189500000C94960E45
:1000700018950000189500001895000018950000CC
:1000800018950000189500001895000018950000BC
:1000900018950000189500001895000018950000AC
:1000A000189500001895000018950000189500009C
:1000B000189500008FEF8DBFC0E0E8E14E2E88E07C
:1000C0008EBFD8E0F6E05F2EA89584B7082E877F14
:1000D00084BF88E199278093600090936000EEEFE1
:1000E000F7E0A0E0B1E088278D933197E9F783E04E
:1000F0008093C40080E08093C50088E18093C100B4
:10010000662474B7777F74BF8FE197E080936000B7
:10011000909360008091600088608093600080E030
:100120008093000180E08093800084E080938100D0
:100130000E940F15559A579A569A6F98779A78E0B9
:100140007093730078E07093680070916800786035
:10015000709368007091C10070687093C10081E075
:100160008093900200919002083018F011F00C94E6
:10017000F700E0E9F2E0A190BB24EFE0F0E0EA0D47
:10018000FB1DA0E9B2E0AD90BB24A5EEB2E0AA0D44
:10019000BB1D0E94AF14E0E9F2E0A190BB24EFE1A7
:1001A000F0E0EA0DFB1DA0E9B2E0AD90BB24A2EFA8
:1001B000B2E0AA0DBB1D0E94AF14E0E9F2E0A190ED
:1001C000BB24EFE2F0E0EA0DFB1DA0E9B2E0AD9048
:1001D000BB24AAEFB2E0AA0DBB1D0E94AF14A0E998
:1001E000B2E08C918F5F8C9310F40C94B20080E09D
:1001F0008093A90280E0D2018C9381E00E94821159
:100200008CE4D2018C9381E00E9482118091A9023A
:10021000D2018C9381E00E9482110E948C0D26965F
:1002200083E00E947E1180E0D2018C9381E00E94E5
:1002300082118EE4D2018C9381E00E948211809120
:10024000A902D2018C9381E00E9482110E948C0D40
:10025000269683E00E947E11789484E690E00E94C6
:10026000041070916F00716070936F0081E0ECE298
:100270000E942313A2EFB2E00C93A895A5EAB2E086
:10028000BA93AA930E94B90D2296A5EAB2E00C9106
:1002900004FB81E00EF080E08F93A5EAB2E00C91C0
:1002A00001FB81E00EF480E09F918923882311F403
:1002B0000C945C010E94FE01A5EAB2E00C9103FBE4
:1002C00081E00EF080E08F93A5EAB2E00C9100FB94
:1002D00081E00EF480E09F918923882311F40C942F
:1002E00073010E9479018AE090E00E9404100C944E
:1002F0003D01A8E1B3E08C9182608C9380E090E0B6
:10030000A9E1B3E08D939C9380911803D2018C9363
:1003100081E00E9482118CE4D2018C9381E00E94E2
:10032000821181E0D2018C9381E00E9482110E94AF
:100330008C0D269683E00E947E11A5EAB2E0BA9366
:10034000AA930E94B90D2296ECECFAE20E94930F58
:100350000E949A0F8AE090E00E940410A9E1B3E0A5
:100360000E94E20EA5EAB2E00C9100FB81E00EF0E3
:1003700080E08F93A5EAB2E00C9102FB81E00EF4DD
:1003800080E09F91892B8F93A9E1B3E00D911C919F
:10039000033A57E0150780E010F009F081E09F91E3
:1003A000892B882311F40C948401A8E1B3E08C918B
:1003B0008D7F8C9380911803D2018C9381E00E94F1
:1003C00082118CE4D2018C9381E00E94821181E041
:1003D000D2018C9381E00E9482110E948C0D26969E
:1003E00083E00E947E11E9E1F3E0A0E0B6E00E9424
:1003F000B6130E948B0F0E949A0F0895A8E1B3E0F4
:100400008C9181608C9380E090E0A9E1B3E08D93C2
:100410009C9380911803D2018C9381E00E948211F9
:100420008CE4D2018C9381E00E94821181E0D201A0
:100430008C9381E00E9482110E948C0D269683E0AD
:100440000E947E11A5EAB2E0BA93AA930E94B90D68
:100450002296E8EDFAE20E94930F0E949A0F8AE03A
:1004600090E00E940410A9E1B3E00E94E20EA5EA28
:10047000B2E00C9101FB81E00EF080E08F93A5EAE1
:10048000B2E00C9102FB81E00EF480E09F91892B99
:100490008F93A9E1B3E00D911C91053458E0150745
:1004A00080E010F009F081E09F91892B882311F4FE
:1004B0000C940902A8E1B3E08C918E7F8C9380911B
:1004C0001803D2018C9381E00E9482118CE4D20146
:1004D0008C9381E00E94821181E0D2018C9381E0B3
:1004E0000E9482110E948C0D269683E00E947E114C
:1004F000E9E1F3E0A0E0B6E00E94B6130E948B0FA2
:100500000E949A0F089500910001013011F00C949F
:100510008A025F9A0E94470F082F013011F00C9455
:100520009D095D9AA8E8B1E0BA93AA930E947C0E57
:100530002296E8E8F1E09AE300E236E0A9ECB1E0C7
:100540000E94DB14AFE8B2E02C9300E010E020E062
:1005500030E0AAEAB2E00D931D932D933C935E9890
:10056000A9ECB1E0E2EEFAE20E94BF1481E009F0EA
:1005700080E08F93ACE2B2E0E6EEFAE20E94BF14B4
:1005800081E009F080E09F918923882311F40C9485
:100590007B0381E08093A902AAEEB1E0E8EEFAE2E3
:1005A0000E94BF1411F00C940403ABE0B2E00E946F
:1005B000B914082F083011F00C94FC02ABE0B2E043
:1005C0000E946414D2010C9381E00E9482118CE499
:1005D000D2018C9381E00E9482118091A902D20104
:1005E0008C9381E00E9482110E948C0D269683E0FC
:1005F0000E947E110C940203EAEEFAE20E94930F2D
:100600000E949A0F0C947B03E8EFFAE20E94BF1459
:1006100011F00C943A03ABE0B2E00E94B914082F39
:10062000023011F00C943203ABE0B2E00E9473147C
:10063000D2010C9381E00E9482118CE4D2018C9350
:1006400081E00E9482118091A902D2018C9381E005
:100650000E9482110E948C0D269683E00E947E11DA
:100660000C943803EAEFFAE20E94930F0E949A0F6B
:100670000C947B03E8E0FBE20E94BF1411F00C94A1
:100680007503ABE0B2E00E940C1440E051E060E082
:1006900070E00E94A3130CF402C00C946D03ABE055
:1006A000B2E00E940C14D2010C9381E00E948211EE
:1006B0008CE4D2018C9381E00E9482118091A90286
:1006C000D2018C9381E00E9482110E948C0D2696AB
:1006D00083E00E947E110C947303EAE0FBE20E9427
:1006E000930F0E949A0F0C947B03E8E1FBE20E94B7
:1006F000930F0E949A0FA9ECB1E0EAE2FBE20E949C
:10070000BF1481E009F080E08F93ACE2B2E0E6EE46
:10071000FAE20E94BF1481E009F080E09F918923F2
:10072000882311F40C945D04AAEEB1E0EEE2FBE242
:100730000E94BF1411F00C94DA0380E090E0A1EA6B
:10074000B2E08D939C93A1EAB2E08C91D2018C939C
:1007500081E00E9482118CE4D2018C9381E00E949E
:10076000821180E0D2018C9381E00E9482110E946C
:100770008C0D269683E00E947E11A1EAB2E01196CC
:100780008C91D2018C9381E00E9482118EE4D2017F
:100790008C9381E00E94821180E0D2018C9381E0F1
:1007A0000E9482110E948C0D269683E00E947E1189
:1007B0000C945D04AAEEB1E00E940C14A4EAB2E02D
:1007C0000C93ABE0B2E00E940C14A3EAB2E00C93ED
:1007D0000091A302003018F011F00C94F1030C9476
:1007E000F70381E08093A30281E08093A902009146
:1007F000A4020F3081E010F009F080E08F930091A7
:10080000A302013081E010F009F080E09F91892B74
:10081000882311F40C945704A3EAB2E08C9180FB76
:100820008091A402A1EAB2E00E94F4110E94EA11B0
:100830000C9016F0092201C0082A0C92A1EAB2E03D
:100840008C91D2018C9381E00E9482118CE4D201C0
:100850008C9381E00E9482118091A902D2018C9335
:1008600081E00E9482110E948C0D269683E00E94F6
:100870007E11A1EAB2E011968C91D2018C9381E0B5
:100880000E9482118EE4D2018C9381E00E94821139
:100890008091A902D2018C9381E00E9482110E9472
:1008A0008C0D269683E00E947E110C945D04E2E399
:1008B000FBE20E94930F0E949A0FA9ECB1E0E4E4DE
:1008C000FBE20E94BF1481E009F080E08F93ACE26C
:1008D000B2E0E8E4FBE20E94BF1481E009F080E0AE
:1008E0009F918923882311F40C940505ABE0B2E0B5
:1008F000E8EEFAE20E94BF1411F00C94A504AAEEEF
:10090000B1E00E946414A1E9B2E00C93A5EAB2E060
:10091000BA93AA930E94B90D22960091A502409124
:1009200091020423A5EAB2E00C93EAE4FBE20E9400
:10093000930FD201E5EAF2E00E945414D2010E9422
:100940008D0F0E949A0F0C940505E8EFFAE20E94C1
:10095000BF1411F00C94D204AAEEB1E00E947314FB
:10096000A1E9B2E00C93A5EAB2E0BA93AA930E947F
:10097000B90D22960091A502409191020423A5EAA7
:10098000B2E00C93E0E5FBE20E94930FA0E0B6E03A
:10099000E5EAF2E00E943B140E948B0F0E949A0F3E
:1009A0000C940505E8E0FBE20E94BF1411F00C94E2
:1009B000FF04AAEEB1E00E940C14A1E9B2E00C938E
:1009C000A5EAB2E0BA93AA930E94B90D22960091CB
:1009D000A502409191020423A5EAB2E00C93E6E55A
:1009E000FBE20E94930FE5EAF2E0A0E0B6E00E948D
:1009F000C6130E948B0F0E949A0F0C940505E8E124
:100A0000FBE20E94930F0E949A0FA9ECB1E0ECE583
:100A1000FBE20E94BF1481E009F080E08F93ACE21A
:100A2000B2E0E8E4FBE20E94BF1481E009F080E05C
:100A30009F918923882311F40C941806AAEEB1E043
:100A4000E0E6FBE20E94BF1411F00C944705ABE016
:100A5000B2E00E940C14A3E9B2E00C93A4E9B2E066
:100A6000BA93AA9380919202D2018C9381E00E9462
:100A7000821180E0D2018C9381E00E9482110E9459
:100A8000DB0D269682E00E947E110C940206E2E6BF
:100A9000FBE20E94BF1411F00C946E05ABE0B2E0D3
:100AA0000E940C14A3E9B2E00C93A4E9B2E0BA935B
:100AB000AA9380919202D2018C9381E00E948211CC
:100AC00081E0D2018C9381E00E9482110E94DB0DB3
:100AD000269682E00E947E110C940206E4E6FBE278
:100AE0000E94BF1411F00C949505ABE0B2E00E9497
:100AF0000C14A3E9B2E00C93A4E9B2E0BA93AA9370
:100B000080919202D2018C9381E00E94821182E056
:100B1000D2018C9381E00E9482110E94DB0D269607
:100B200082E00E947E110C940206E6E6FBE20E943F
:100B3000BF1411F00C94BC05ABE0B2E00E940C14A1
:100B4000A3E9B2E00C93A4E9B2E0BA93AA9380912E
:100B50009202D2018C9381E00E94821183E0D20143
:100B60008C9381E00E9482110E94DB0D269682E028
:100B70000E947E110C940206E8E6FBE20E94BF147C
:100B800011F00C940206ABE0B2E00E940C14A3E951
:100B9000B2E00C93A4E9B2E0BA93AA9380919202D6
:100BA000D2018C9381E00E94821180E0D2018C936B
:100BB00081E00E9482110E94DB0D269682E00E9455
:100BC0007E11A4E9B2E00E94290FEAE6FBE20E944E
:100BD000BE11A4E9B2E00E94290FBA93AA938091B2
:100BE0009202D2018C9381E00E94821181E0D201B5
:100BF0008C9381E00E9482110E94DB0D269682E098
:100C00000E947E11ECE6FBE20E94930FAAEEB1E097
:100C10000E948D0FEAE6FBE20E94930FA4E9B2E086
:100C20000E948D0FE2E7FBE20E94930F0E949A0F51
:100C3000A9ECB1E0E6E7FBE20E94BF1481E009F015
:100C400080E08F93ACE2B2E0E8E4FBE20E94BF14E4
:100C500081E009F080E09F918923882311F40C94AE
:100C60005E06EAE7FBE20E94930FAAEEB1E00E9463
:100C70008D0FEAE6FBE20E94930FA0E1B0E0BA9389
:100C8000AA93AAEEB1E00E940C14D2010C9381E069
:100C90000E9482110E941B0A249681E00E947E110C
:100CA000E0E1F0E0A0E0B6E00E94B6130E948B0FF6
:100CB000E0E8FBE20E94930F0E949A0FA9ECB1E0DA
:100CC000E4E8FBE20E94BF1481E009F080E08F932A
:100CD000ACE2B2E0E8E4FBE20E94BF1481E009F07C
:100CE00080E09F918923882311F40C94A406A5EA3F
:100CF000B2E0BA93AA930E94190C22960E94131094
:100D0000E5ECF2E0AAEEB1E00E948D148AE39EE2E7
:100D1000AAEEB1E00E948811E8E8FBE20E94930F7E
:100D20000E941310ACEBB2E00E948D0FEEE8FBE2E4
:100D30000E94930FAAEEB1E00E948D0FE2E7FBE262
:100D40000E94930F0E949A0FA9ECB1E0E4E8FBE245
:100D50000E94BF1481E009F080E08F93ACE2B2E022
:100D6000E6EEFAE20E94BF1481E009F080E09F9174
:100D70008923882311F40C94DA068EE29AE3ABE01F
:100D8000B2E00E948811EAEEF1E0ACEBB2E00E9422
:100D90008D140E941E10EBE0F2E0A5ECB2E00E9480
:100DA0008D140E942610A5EAB2E0BA93AA930E947D
:100DB000740C2296A9ECB1E0E0E9FBE20E94BF14BA
:100DC00081E009F080E08F93ACE2B2E0E8E4FBE27E
:100DD0000E94BF1481E009F080E09F91892388235D
:100DE00011F40C94F5060E94AD0AA9ECB1E0E8E913
:100DF000FBE20E94BF1481E009F080E08F93ACE237
:100E0000B2E0E8E4FBE20E94BF1481E009F080E078
:100E10009F918923882311F40C9410070E94620B80
:100E2000A9ECB1E0E4EAFBE20E94BF1481E009F022
:100E300080E08F93ACE2B2E0E8E4FBE20E94BF14F2
:100E400081E009F080E09F918923882311F40C94BC
:100E50002B070E94F10CA9ECB1E0EEEAFBE20E9444
:100E6000BF1481E009F080E08F93AEE6B2E0E8E4E1
:100E7000FBE20E94BF1481E009F080E09F9189238A
:100E8000882311F40C949C09AAEEB1E0E4EBFBE298
:100E90000E94BF1411F00C940908ABE0B2E0E8EB3B
:100EA000FBE20E94BF1411F00C948407ECEBFBE210
:100EB0000E94930F81E0809390020091900208308D
:100EC00018F011F00C947E07A0E0B6E0E0E9F2E043
:100ED000A190BB24EAEFF2E0EA0DFB1D0E943B1457
:100EE0000E948B0FE4ECFBE20E94930FA0E9B2E0BA
:100EF0008C918F5F8C9310F40C945D07E6ECFBE211
:100F00000E94930F0E949A0FABE0B2E0ECECFBE280
:100F10000E94BF1411F00C940908ECE2F2E09CE28C
:100F200002E038E0AEECB2E00E94DB14AFE8B2E0E1
:100F30002C9381E08093900200919002083018F089
:100F400011F00C94D507A0E9B2E00D91112743E010
:100F500050E00E949111ABECB2E0A00FB11F0E94D3
:100F60007314A0E9B2E0AD90BB24AAEFB2E0AA0DE1
:100F7000BB1D0C93E0E9F2E0A190BB24EFE2F0E0AE
:100F8000EA0DFB1DA0E9B2E0AD90BB24AAEFB2E0F0
:100F9000AA0DBB1D7BE70E949E14A0E9B2E08C91D4
:100FA0008F5F8C9310F40C949C07E0EDFBE20E94A1
:100FB000930F81E08093900200919002083018F026
:100FC00011F00C940308E0E9F2E0A190BB24EFE2F9
:100FD000F0E0EA0DFB1DA5EAB2E00E94AF14A0E02C
:100FE000B6E0E5EAF2E00E943B140E948B0FE4ECCD
:100FF000FBE20E94930FA0E9B2E08C918F5F8C938B
:1010000010F40C94DC07E6ECFBE20E94930F0E94C4
:101010009A0FAAEEB1E0ECEDFBE20E94BF1411F0D2
:101020000C949C09ABE0B2E0E8EBFBE20E94BF1439
:1010300011F00C948908ACE2B2E0E2E6FBE20E9417
:10104000BF1411F00C945208E0EEFBE20E94930FE3
:1010500081E08093900200919002083018F011F026
:101060000C944C08A0E0B6E0E0E9F2E0A190BB24CB
:10107000E5EEF2E0EA0DFB1D0E943B140E948B0F8F
:10108000E4ECFBE20E94930FA0E9B2E08C918F5F49
:101090008C9310F40C942B08E8EEFBE20E94930F63
:1010A0000E949A0FACE2B2E0E4E6FBE20E94BF14B9
:1010B00011F00C948908ECEEFBE20E94930F81E0A2
:1010C0008093900200919002083018F011F00C9477
:1010D0008308A0E0B6E0E0E9F2E0A190BB24E2EFF3
:1010E000F2E0EA0DFB1D0E943B140E948B0FE4EC22
:1010F000FBE20E94930FA0E9B2E08C918F5F8C938A
:1011000010F40C946208E8EEFBE20E94930F0E9438
:101110009A0FABE0B2E0ECECFBE20E94BF1411F0DE
:101120000C949C09ACE2B2E0E2E6FBE20E94BF1440
:1011300011F00C941709EDE4F2E09CE202E038E0D3
:10114000AEECB2E00E94DB14AFE8B2E02C9381E099
:101150008093900200919002083018F011F00C94E6
:10116000E308A0E9B2E00D91112743E050E00E94AE
:101170009111ABECB2E0A00FB11F0E947314A0E973
:10118000B2E0AD90BB24A5EEB2E0AA0DBB1D0C935E
:10119000E0E9F2E0A190BB24EFE0F0E0EA0DFB1DF6
:1011A000A0E9B2E0AD90BB24A5EEB2E0AA0DBB1D54
:1011B0007BE70E949E14A0E9B2E08C918F5F8C9334
:1011C00010F40C94AA08E4EFFBE20E94930F81E074
:1011D0008093900200919002083018F011F00C9466
:1011E0001109E0E9F2E0A190BB24EFE0F0E0EA0DA4
:1011F000FB1DA5EAB2E00E94AF14A0E0B6E0E5EA6C
:10120000F2E00E943B140E948B0FE4ECFBE20E9490
:10121000930FA0E9B2E08C918F5F8C9310F40C9443
:10122000EA08E8EEFBE20E94930F0E949A0FACE2FC
:10123000B2E0E4E6FBE20E94BF1411F00C949C09BA
:10124000EDE4F2E09CE202E038E0AEECB2E00E94B5
:10125000DB14AFE8B2E02C9381E080939002009120
:101260009002083018F011F00C946809A0E9B2E07F
:101270000D91112743E050E00E949111ABECB2E0D8
:10128000A00FB11F0E947314A0E9B2E0AD90BB247F
:10129000A2EFB2E0AA0DBB1D0C93E0E9F2E0A19031
:1012A000BB24EFE1F0E0EA0DFB1DA0E9B2E0AD9058
:1012B000BB24A2EFB2E0AA0DBB1D7BE70E949E14E7
:1012C000A0E9B2E08C918F5F8C9310F40C942F09FD
:1012D000E0E0FCE20E94930F81E080939002009195
:1012E0009002083018F011F00C949609E0E9F2E051
:1012F000A190BB24EFE1F0E0EA0DFB1DA5EAB2E00E
:101300000E94AF14A0E0B6E0E5EAF2E00E943B14D0
:101310000E948B0FE4ECFBE20E94930FA0E9B2E085
:101320008C918F5F8C9310F40C946F09E8EEFBE2C4
:101330000E94930F0E949A0F5D9843E050E060E096
:1013400070E0AAEAB2E00D911D912D913C910E94AE
:10135000A31380E014F009F081E08F930091000165
:10136000003081E009F080E09F918923882311F407
:101370000C94020A00E010E020E030E0AAEAB2E0BB
:101380000D931D932D933C9380E08093A90280E000
:10139000D2018C9381E00E9482118CE4D2018C9363
:1013A00081E00E9482118091A902D2018C9381E098
:1013B0000E9482110E948C0D269683E00E947E116D
:1013C00080E0D2018C9381E00E9482118EE4D201F0
:1013D0008C9381E00E9482118091A902D2018C93AA
:1013E00081E00E9482110E948C0D269683E00E946B
:1013F0007E115E9AECE0FCE20E94930F0E949A0F2D
:101400000C94020A0091A702013010F40C94190AFE
:1014100080E08093A70281E0ECE20E9409125CEC7C
:1014200081E0ECE20E94311254E481E0ECE20E949F
:1014300031120C94830280918100887F8093810017
:1014400082E00E94821181E0ECE20E94091255E5DF
:1014500081E0ECE20E943112AA81BB810C91013043
:1014600011F00C943B0A81E0ECE2A6EEB2E00E949F
:1014700038130C94450A023011F00C94450A81E0AF
:10148000ECE2A3EFB2E00E94381362FA16F00C947B
:10149000570A80E090E0A881B9818D939C938FEFEB
:1014A0009FEFAC81BD818D939C930C94840A5EEB7D
:1014B00081E0ECE20E94311281E0A881B981ECE286
:1014C00022E02A930E945912A881B9810D911C91A2
:1014D0004AE050E00E949111A881B9810D931C93BC
:1014E000A881B9810D911C9140E150E00E94EF0E5E
:1014F000A881B9814D935C93A881B9818D919C910C
:10150000AC81BD818D939C9384E08093810082E0C7
:10151000481A80E0580A2296089581E00E948211BC
:1015200083E0E9E20E94AE12A3E0B3E0E0E1F3E081
:1015300098E00E94931488E090E0EBEFF2E0A3E0E3
:10154000B3E00E940215AA81BB810C9381E0481A86
:1015500080E0580A22960895089581E00E94821141
:1015600081E00E94821181E0ECE20E942313AA81B3
:10157000BB810C93AA81BB810C91003011F00C94BB
:10158000C90AE0E2FCE20E94930F0E949A0F0C94B9
:101590005C0BECE2FCE20E94930FEA81FB81A0E08D
:1015A000B6E00E94C6130E948B0FEAE6FBE20E949F
:1015B000930F81E0ECE20E94AE12AEEAB2E0E0E10D
:1015C000F3E098E00E94931481E0809390020091F0
:1015D0009002083018F011F00C94080BA0E0B6E06F
:1015E000E0E9F2E0A190BB24EDEAF2E0EA0DFB1D98
:1015F0000E943B140E948B0FE4ECFBE20E94930FCD
:10160000A0E9B2E08C918F5F8C9310F40C94E70A00
:10161000EAE6FBE20E94930F82E0A881B9818C93F5
:10162000AA81BB814C91A881B9810C91041718F053
:1016300011F00C94560B81E0ECE20E94B312AEEA7A
:10164000B2E0E0E1F3E098E00E94931481E080933F
:10165000900200919002083018F011F00C944A0B9F
:10166000A0E0B6E0E0E9F2E0A190BB24EDEAF2E010
:10167000EA0DFB1D0E943B140E948B0FE4ECFBE281
:101680000E94930FA0E9B2E08C918F5F8C9310F4CD
:101690000C94290BEAE6FBE20E94930FA881B98122
:1016A0008C918F5F8C9310F40C94100BE8EEFBE29E
:1016B0000E94930F0E949A0F82E0481A80E0580A15
:1016C0002496089581E00E94821181E00E94821197
:1016D00083E0E9E20E942313AA81BB810C93AA81D3
:1016E000BB810C91003011F00C947E0BE0E2FCE227
:1016F0000E94930F0E949A0F0C94C70BE2E3FCE246
:101700000E94930FEA81FB81A0E0B6E00E94C6131D
:101710000E948B0FEAE6FBE20E94930F83E0E9E26E
:101720000E94AE12AEEAB2E0E0E1F3E098E00E947F
:10173000931481E08093900200919002083018F099
:1017400011F00C94BD0BA0E0B6E0E0E9F2E0A1904E
:10175000BB24EDEAF2E0EA0DFB1D0E943B140E945F
:101760008B0FE4ECFBE20E94930FA0E9B2E08C91B6
:101770008F5F8C9310F40C949C0BEAE6FBE20E94C2
:10178000930FE8EEFBE20E94930F0E949A0F82E013
:10179000481A80E0580A249608950F921F922F92BB
:1017A0003F924F925F927F92AF92BF920F931F939F
:1017B0002F933F934F935F936F937F938F939F9359
:1017C000AF93BF93CF93DF93EF93FF938FB78F9335
:1017D000A6EAB2E08C918F5F8C93AAEAB2E00E94F5
:1017E000D50E0091A602023010F40C94FA0B80E0A2
:1017F0008093A60281E08093A7028F918FBFFF9113
:10180000EF91DF91CF91BF91AF919F918F917F9198
:101810006F915F914F913F912F911F910F91BF90C9
:10182000AF907F905F904F903F902F901F900F90C0
:10183000189581E00E94821183E0E9E20E9409127A
:1018400081E08A9383E06CECBB27A6E1E9E20E9489
:10185000371281E08A9383E066E6BB27A6E1E9E2DE
:101860000E94371283E0A881B981E9E221E02A933E
:101870000E94591283E0ADE9B2E0E9E221E02A9347
:101880000E94591283E0AEE9B2E0E9E221E02A9336
:101890000E94591283E0AFE9B2E0E9E221E02A9325
:1018A0000E94591283E0A0EAB2E0E9E221E02A9323
:1018B0000E945912EDE9F2E0A5ECB2E00E94661137
:1018C0000E942610EDE9F2E0ACEBB2E00E946E114E
:1018D0000E941E1080E0AA81BB818C9381E0481A8F
:1018E00080E0580A22960895E6EBF2E00E942D115E
:1018F000ADE9B2E00D931D932D933D9383E0E9E2B2
:101900000E94091281E08A9383E06CECBB27A6E178
:10191000E9E20E94371281E08A9383E069E9BB27FC
:10192000A6E1E9E20E94371281E08A9383E06CE04D
:10193000BB27A6E1E9E20E94371281E08A9383E0A7
:10194000ADE9B2E0E9E20E94371281E08A9383E0D8
:10195000AEE9B2E0E9E20E94371281E08A9383E0C7
:10196000AFE9B2E0E9E20E94371281E08A9383E0B6
:10197000A0EAB2E0E9E20E94371280E0A881B981D2
:101980008C93089581E0ECE20E9409125CEC81E006
:10199000ECE20E94311259E981E0ECE20E9431123E
:1019A0005CE081E0ECE20E94311250E081E0ECE288
:1019B0000E94311250E081E0ECE20E94311250E0CE
:1019C00081E0ECE20E94311250E081E0ECE20E9402
:1019D000311280E0A881B9818C930895089508950B
:1019E000089581E00E948211ECE2FCE20E94930FD4
:1019F00080E0A881B9818C93A881B9810C910E3FB8
:101A000018F011F00C94250D0E941415A881B981CD
:101A10001C910E942C1562FA16F40C941B0DA0E088
:101A2000B6E0E881F9810E943B140E948B0FEAE640
:101A3000FBE20E94930F0E942315A881B9818C912B
:101A40008E5F8C9310F40C94FC0CE8EEFBE20E9489
:101A5000930F0E949A0F81E0481A80E0580A22965C
:101A6000089581E00E94821181E00E94821181E04C
:101A7000A881B9818C9380E0AA81BB818C93AA81D3
:101A8000BB810C910E3F18F011F00C94800D0E9458
:101A90001415AA81BB811C910E942C1562FA16F4C0
:101AA0000C94760DAC81BD814C91AA81BB810C91C7
:101AB000041711F00C94600D80E0A881B9818C931B
:101AC000A0E0B6E0EA81FB810E943B140E948B0FEC
:101AD000E8E3FCE20E94930FA0E0B6E0EC81FD8118
:101AE0000E943B140E948B0F0E949A0F0E942315A4
:101AF000AA81BB818C918E5F8C9310F40C943F0D66
:101B0000A881B9818C91AE81BF818C9382E0481A03
:101B100080E0580A2496089581E00E948211A895D9
:101B2000AE81BF81E881F9818C91809580830E948C
:101B30001415AC81BD811C910E942C15A881B9811E
:101B40001C910E942C151FEF0E942C150E9423153A
:101B5000AA81BB810C91003011F00C94B20D5F98FA
:101B60000C94B30D5F9A81E0481A80E0580A2296DF
:101B70000895A89581E00E9482110E9414151DE429
:101B80000E942C150E944B15A881B9811C930E94BC
:101B90004915A881B9811C930E942315A881B98198
:101BA000EA81FB818C918095808381E0481A80E0F6
:101BB000580A2296089581E00E948211AA81BB8171
:101BC0000C91003011F00C94EB0D80ECA881B981E0
:101BD0008C930C94070E013011F00C94F50D80EDF0
:101BE000A881B9818C930C94070E023011F00C94EB
:101BF000FF0D80EEA881B9818C930C94070E033001
:101C000011F00C94070E80EFA881B9818C9391E0BC
:101C1000AC81BD810E94C411A881B9810C91AC81B5
:101C2000BD814C91040FA881B9810C930E941415B9
:101C300010E90E942C1511E00E942C15A881B98191
:101C40001C910E942C1513E80E942C150E9423154C
:101C50008FE090E00E9404100E94141510E90E9489
:101C60002C1510E00E942C150E94141511E90E94F9
:101C70002C150E944B15A3E0B1E01C930E9449155E
:101C8000A2E0B1E01C930E942315A3E0B1E00C9107
:101C900007FB16F00C94680E0FEF1FEFA2E0B1E007
:101CA0004D915C91041B150BA2E0B1E00D931C93C8
:101CB000AE81BF81ECE3FCE20E94BE11E2E0F1E004
:101CC000AE81BF810E94290F0E94B6130C94760E3C
:101CD000AE81BF81EEE3FCE20E94BE11E2E0F1E0E2
:101CE000AE81BF810E94290F0E94B61381E0481A7D
:101CF00080E0580A2296089500EA16E821E030E0D4
:101D0000ABE1B3E00D931D932D933C930E94D61449
:101D1000A7E4B1E0E0E40E94320F0E94D314E7E4AC
:101D2000F1E0A881B9810E948D1408950F921F924D
:101D30002F923F924F925F927F92AF92BF920F93FA
:101D40001F932F933F934F935F936F937F938F9343
:101D50009F93AF93BF93CF93DF93EF93FF938FB78F
:101D60008F93E0E4FCE20E94930F0E949A0F8F9100
:101D70008FBFFF91EF91DF91CF91BF91AF919F9175
:101D80008F917F916F915F914F913F912F911F9113
:101D90000F91BF90AF907F905F904F903F902F90AA
:101DA0001F900F901895F894FFCF0D911D912D91D4
:101DB0003C910F5F1F4F2F4F3F4F3C932E931E932D
:101DC0000E930895ED91FC91EF5FFF4FFC93EE931E
:101DD000089509D00E94911100FC10D0089503D0FD
:101DE0001ED001F8F9CF0024E89457FF02C009D0B3
:101DF000689400F80BD010F80124089502D009D09F
:101E00000895509540954F5F5F4F0895E89417FFF0
:101E10000895009510950F5F1F4F68940895352F12
:101E2000242FE894452B11F468940895512F402FE6
:101E30000027112780E1440F551F001F111F021BAF
:101E4000130B416018F4020F131F4E7F8A9599F708
:101E500008958F938D918823E9F711978F910895B5
:101E6000A0E0B6E01AD0803079F08D3039F0EE2362
:101E7000C9F38D93EA9563FE60D0F4CF63FC04C090
:101E80008DE05BD08AE059D088278C9308958091AB
:101E90004601882309F081E008950F929F93AF9344
:101EA000BF937F930F931F932F933F93ABE1B3E0C7
:101EB0000D911D912D913C918827802B812B822B98
:101EC000832BF1F0015010402040304080914601BA
:101ED000882391F3F894809146018A958093460176
:101EE00090914401A4E0B1E0A90F0024B01D8C91B1
:101EF0009395903409F4992790934401789401C004
:101F000088273F912F911F910F917F91BF91AF91A2
:101F10009F910F900895A0E0B6E08D91882311F075
:101F20000CD0FBCF08950E94CC11802D11F005D06C
:101F3000FACF08958DE001D08AE00090C00005FE40
:101F4000FCCF8093C600089500FC05D0089530D0E2
:101F500005D001F8F9CF37D03FD00895842F952FC1
:101F6000A62FB72FE894452B462B472B11F46894E6
:101F70000895402F512F622F732F002711272227FA
:101F80003327F0E2440F551F661F771F001F111FF4
:101F9000221F331F081B190B2A0B3B0B416028F42F
:101FA000080F191F2A1F3B1F4E7FFA9559F70895F6
:101FB0000024E89477FF02C006D0689400F809D0A6
:101FC00010F80124089512D04F5F5F4F6F4F7F4F7D
:101FD0000895E89437FF0895009510952095309561
:101FE0000F5F1F4F2F4F3F4F6894089540955095B6
:101FF0006095709508953197F1F70895689462F8A7
:102000000895E89462F80895EF93FF93EE27E82B84
:10201000E92B31F0E0EAFFE03197F1F70197D1F7D2
:10202000FF91EF9108950E94EF0CACEBB2E0E9EB69
:10203000F2E00E94661033970C944210ECEBF2E051
:10204000A9EBB2E00E9454100C94F00CE5ECF2E025
:10205000A6EBB2E00E9430100C94EE0CADE0BB2772
:10206000868197810E9466130D93838194810E94DB
:1020700066130D93808191810E9466130D930895DC
:10208000EDE0FF2782810E945B138AE38D938181BB
:102090000E945B138AE38D9380810E945B138827E3
:1020A0008C930895ADE0BB27808191810E946613D7
:1020B0000D93838194810E9466130D93868197818D
:1020C0000E9466130D930895EDE0FF2780810E9422
:1020D0005B138EE28D9381810E945B138EE28D9360
:1020E00082810E945B1388278D93089593E0ADE071
:1020F00002C096E0AAE0B0E08FB7F89401910D938A
:102100009A95E1F78FBF08950191119145EB55E044
:102110000E94EF0E440F440FF42E0F31150728F4E0
:1021200081E0E82E0395D02E22C00C33150728F449
:1021300082E0E82E0E51D02E1AC00150150B4DE64C
:1021400051E00E940F0FF40E7CE07A95872F9927BB
:10215000E0E7F1E2A2E1BB270E94DC1102171307BE
:10216000A0F37395E72E021B130B0395D02E089551
:1021700000001F003B005A0078009700B500D40013
:10218000F300110130014E01019111912191308133
:1021900040E851E561E070E00E94A70F042F152F81
:1021A0000C948610A3DF0E2D0A95802F0295003225
:1021B00020F01F2D137009F40395DA940D0D1127EB
:1021C0009927E4EDF1E2A8E1BB270E94E111080F95
:1021D000111F0895000F1B2A384755647381909E84
:1021E00085DF0F2D11274CE355270E94E90E552757
:1021F0000E0D151F4CE322273327662777270E94F1
:102200009B110D0D131F231F089570DFDF92EF92B6
:10221000FF920F2D1127222733274DE651E060E072
:1022200070E00E949B11FF904F2D4D5F46954695A3
:102230005527662777270E949E13EF90DF900F9314
:102240001F932F933F930E94D310222733277F9110
:102250006F915F914F910C949E134BDFAF92BF92A1
:10226000CF920E94061140E851E561E070E00E94C3
:102270009B11FF90EF90DF900F931F932F933F934D
:102280000E94F1107F916F915F914F910C949E137A
:10229000019111912191308140E851E561E070E0B8
:1022A0000E94A70F0C945811019111912191308136
:1022B00040E15EE060E070E00E94A70FF42E4CE386
:1022C00050E00E94EF0EE42ED02E0895AF93BF93FE
:1022D0000E944811BF91AF910C944010AF93BF93EF
:1022E0000E94C410BF91AF910C94641001911191A0
:1022F000219130810895481A590A0895481A88276B
:10230000580A089599275A924A92480E591E0895DC
:102310000D91003029F00817D9F79E931196F8CF48
:1023200008950F92B801469F8001479F100D569F58
:10233000100D0F9008950F921F922F92C801D9018E
:10234000489F80014A9F90014B9F202C499F100D70
:10235000211D321D5A9F202C589F100D211D321D0A
:10236000599F200D311D689F200D311D699F300D33
:10237000789F300D2F901F900F9008950E94CC11E0
:102380000D920020D9F70895903029F08C91880F94
:102390009A95E9F78C930895C89531960020089591
:1023A00091E005C092E003C094E001C098E0F4DF42
:1023B0000D929A95E1F70895880F991FE80FF91F7C
:1023C000F1CFE80FF91FECCF813618F08B3708F406
:1023D0008F7D089591E0882321F08894991F8A9534
:1023E000E9F7892F90950895883018F01196885054
:1023F000FBCF08950181082B0183128119231283D9
:10240000EF93FF93E4E1F0E00E94FB0FFF91EF9167
:1024100008950E940110FF270E94EA11EBDFEF935D
:10242000FF93ECE7F7E00E94FB0FFF91EF91182B71
:10243000128309230183EF93FF93E4E1F1E00E940B
:10244000FB0FFF91EF911081182311F00E94FE0FF6
:10245000EF93FF93E4E6F6E00E94FB0FFF91EF910C
:1024600008950E94EA11FF2721E048E006C00E947B
:10247000EA11FF2729915D9148E0BCDF579510F4E0
:10248000182B1283EF93FF93E4EDF0E00E94FB0F13
:10249000FF91EF91182B1283EF93FF93E4E2F0E0AA
:1024A0000E94FB0FFF91EF914A9539F72A9519F792
:1024B00008950E94EA11FF27299148E055279ADFE5
:1024C00009230183EF93FF93E0E2F0E00E94FB0F0A
:1024D000FF91EF9188941081182309F00894579583
:1024E000EF93FF93E8EDF0E00E94FB0FFF91EF9177
:1024F0004A9529F75D932A9501F708957BDF092313
:102500000183EF93FF93E0E2F0E00E94FB0FFF9165
:10251000EF91E8941081182309F06894EF93FF93EA
:10252000E8EDF0E00E94FB0FFF91EF91089562DF6C
:1025300016F4182B1283EF93FF93E4EDF0E00E9462
:10254000FB0FFF91EF91182B1283EF93FF93E4E2BF
:10255000F0E00E94FB0FFF91EF9108953327309335
:102560000F0330930C0355DF0EF458C030910C0369
:1025700030FD54C0662760930E03639560930D038E
:1025800021E050EF48E079DFB9DF31F9B7DF32F908
:10259000632F6670663009F441C0603019F031FB7A
:1025A00040D025C060910D0370910F036717B1F003
:1025B000C0F48F939F93862F8A95A0E1B3E014DF38
:1025C00009DF7C9178236894772329F4E89460915B
:1025D0000D0360930E039F918F9109C0689421D0E1
:1025E00006C0E8941ED060910D0360930E039FDF38
:1025F00060910D03639560930D03613409F0C4CFBE
:1026000060910E0360930F036623E89409F46894C5
:1026100030F930930C03E89462F80895689462F8F6
:1026200008958F939F93A0E1B3E080910D038A9565
:10263000DBDED0DE7C9116F4782B01C079237C930D
:102640009F918F9108958F9389DF8F91A0E0B0E0E3
:1026500066F011968F93AF93BF9385DFBF91AF91D3
:102660008F910EF0F6CFE89462F80A2F1B2F089591
:10267000AF93BF93EF93FF9338E0E0E1F3E00D9168
:1026800001933A95E1F7FF91EF9130E430930F0316
:10269000332730930C0367DF38E0BF91AF91E0E15F
:1026A000F3E00D914191041719F43A95D1F708958B
:1026B0000E94FE0F089500278A3018F08A50039573
:1026C000FBCF005D0D93805D8D93089580539053F3
:1026D0000027813018F0065F8A95FBCF090F089517
:1026E0007F930F93AF93BF938F939F938FB78F93E6
:1026F0008091460100E4081B29F49091C6000E94D5
:10270000FE0F13C000914501A4E0B1E0772790913E
:10271000C600A00FB71F9C93839580934601039535
:10272000003409F40027009345018F918FBF9F91DA
:102730008F91BF91AF910F917F911895040F151F45
:10274000261F371F08950417150726073707089512
:10275000000F111F221F331F08950095109520951B
:1027600030950F5F1F4F2F4F3F4F089501911081FC
:102770000FC00E9476110EC00E94761110C0019108
:10278000108117FF05C03FEF2FEF04C00081112714
:102790002227332737FF03C0E0DF8DE28D93CF92EE
:1027A000DF92EF92AA24BB24CC24DD24EE2440E265
:1027B000EAE0FF2755E093E38081890F87FD9F7052
:1027C00083FD907F891B81935A95A9F7C1DFAA1CCD
:1027D000BB1CCC1CDD1CEE1C4A9551F7E894EFE0C5
:1027E000FF2782910CD0EB30E0F71EF068948A2D21
:1027F0000AD088278D93EF90DF90CF900895982F7F
:10280000829501D0892F8F70805D26F0803309F486
:10281000089568948D930895002711272227332760
:102820001DD08A3328F4803318F005D015D0F9CFA5
:102830000EF493CF089580538F93402F512F622F22
:10284000732F86DF85DF7ADF83DF8F919927080F6B
:10285000191F291F391F08958D910895E894FCDFF1
:102860008032E9F38B32D9F38930C9F38D3211F418
:102870006894F2CF089541E003C042E001C044E013
:10288000E40F8827F81F8291982F829506D0892F10
:1028900004D04A95C1F70C948A148F708A3008F0DE
:1028A000895F805D8D93089541E0E40F8827F81FCC
:1028B000829138E098E1880F991F9D933A95D1F75E
:1028C0004A95B1F70C948A14002711272227332741
:1028D0008D91882339F08053000F111F221F331F61
:1028E000080FF6CF089500271127222733278D914F
:1028F000882379F02DDF2CDF2BDF2ADF65DD815483
:1029000008F4895F865F080F8827181F281F381F63
:10291000EECF089588278D93089581918D93882314
:10292000E1F7089594E081918D939A95E1F70895E8
:10293000F999FECFE1BDF2BD3196089591E001C055
:1029400092E07B3751F47FB7F894F2DF8D9180BD30
:10295000FA9AF99A9A95C9F77FBF7727089591E077
:1029600001C092E0E5DFF89A80B58D939A95D1F792
:1029700008958FEF83959D919923E1F708956894C9
:1029800001C0E894AF93BF938D9116F0919103C06D
:102990000E94CC11902D891718F011F48823A1F70B
:1029A000BF91AF910895E89463F80895689463F82F
:1029B0000895689401C0E8942227102F231709F482
:1029C000089526F40E94CC11802D01C081918030A1
:1029D00081F0891741F070E08D931A9591F7239556
:1029E00071E01D93EACF01D0E8CF703011F0772766
:1029F0000895772331F42395882713958D931A959D
:102A0000E9F708958C014D915191451721F00197F7
:102A1000081B190B08950197B1F78C0108953C9894
:102A20003D984498459808953D9A3C9803D03D9828
:102A300001D03C9AEF93FF93E0E1F0E00E94FB0F9E
:102A4000FF91EF9108953D9A3C9AF4DF3D98359BB4
:102A5000FECFF0DF3C98EECF0894111F01C0110F9C
:102A600069F03D9A18F400003C9802C03C9A00C0FE
:102A7000E1DF3D98359BFECFDDDFF1CF3D9A3C98FD
:102A8000D9DF3D98359BFECFE8943499689462F87D
:102A9000D1CF089401C08894331F11E03D9A3C982F
:102AA000C9DF3D98359BFECFC5DF889434990894E3
:102AB000111FA0F73D9A379510F43C9801C03C9A3D
:102AC000B9DF3D98359BFECFB5DF0895636C6F731A
:102AD00065206C6F6F7000006F70656E206C6F6F9B
:102AE00070006F757400730062006572723A696EEF
:102AF0007075743A62696E0068006572723A696E48
:102B00007075743A6865780064006572723A696E2F
:102B10007075743A646563006572723A64617461D9
:102B2000747970653A61726700006269740072734B
:102B300074006572723A6D69736D617463683A61AD
:102B400072670000696E00007200696E3A623A00B6
:102B5000696E3A683A00696E3A763A0061646300D9
:102B6000300031003200330034003A006164633ACF
:102B700000003A650000746D7000746D703A0000DA
:102B80003A630000727463007274633A00003B00A1
:102B900031775F7363616E0031775F6B65795F7367
:102BA00063616E006932635F7363616E0000646528
:102BB000764944006B6579006765740031575F6B37
:102BC00065793A002C003A656E6400007365740004
:102BD0004E4F572D4B45595F49443A00317700001D
:102BE00054315F49443A0000656E640054325F49D5
:102BF000443A00004E4F572D54315F49443A00008B
:102C00004E4F572D54325F49443A00006572723A74
:102C1000636F6E6E656374696F6E3A6C6F73740088
:102C20006572723A6E6F5F66696E64006465767392
:102C30003A006B6579733A00202D20002D002B009F
:082C40007063696E7432370005
:00000001FF
